{
  "_format": "hh-sol-artifact-1",
  "contractName": "MessageStore",
  "sourceName": "contracts/MessageStore.sol",
  "abi": [
    {
      "inputs": [],
      "name": "ReentrancyGuardReentrantCall",
      "type": "error"
    },
    {
      "anonymous": false,
      "inputs": [
        {
          "indexed": true,
          "internalType": "address",
          "name": "recipient",
          "type": "address"
        },
        {
          "indexed": false,
          "internalType": "uint256",
          "name": "amount",
          "type": "uint256"
        }
      ],
      "name": "CoffeeWithdrawn",
      "type": "event"
    },
    {
      "anonymous": false,
      "inputs": [
        {
          "indexed": true,
          "internalType": "address",
          "name": "sender",
          "type": "address"
        },
        {
          "indexed": true,
          "internalType": "address",
          "name": "recipient",
          "type": "address"
        },
        {
          "indexed": false,
          "internalType": "string",
          "name": "message",
          "type": "string"
        },
        {
          "indexed": false,
          "internalType": "uint256",
          "name": "amount",
          "type": "uint256"
        }
      ],
      "name": "MessageStored",
      "type": "event"
    },
    {
      "inputs": [],
      "name": "getMyMessages",
      "outputs": [
        {
          "components": [
            {
              "internalType": "address",
              "name": "sender",
              "type": "address"
            },
            {
              "internalType": "string",
              "name": "message",
              "type": "string"
            },
            {
              "internalType": "uint256",
              "name": "amount",
              "type": "uint256"
            }
          ],
          "internalType": "struct MessageStore.CoffeeMessage[]",
          "name": "",
          "type": "tuple[]"
        }
      ],
      "stateMutability": "view",
      "type": "function"
    },
    {
      "inputs": [
        {
          "internalType": "address",
          "name": "user",
          "type": "address"
        }
      ],
      "name": "getPendingWithdrawal",
      "outputs": [
        {
          "internalType": "uint256",
          "name": "",
          "type": "uint256"
        }
      ],
      "stateMutability": "view",
      "type": "function"
    },
    {
      "inputs": [
        {
          "internalType": "address",
          "name": "",
          "type": "address"
        }
      ],
      "name": "pendingWithdrawals",
      "outputs": [
        {
          "internalType": "uint256",
          "name": "",
          "type": "uint256"
        }
      ],
      "stateMutability": "view",
      "type": "function"
    },
    {
      "inputs": [
        {
          "internalType": "address",
          "name": "recipient",
          "type": "address"
        },
        {
          "internalType": "string",
          "name": "_message",
          "type": "string"
        }
      ],
      "name": "sendMessageWithCoffee",
      "outputs": [],
      "stateMutability": "payable",
      "type": "function"
    },
    {
      "inputs": [],
      "name": "withdrawCoffee",
      "outputs": [],
      "stateMutability": "nonpayable",
      "type": "function"
    }
  ],
  "bytecode": "0x608060405234801561001057600080fd5b506001600081905550611107806100286000396000f3fe60806040526004361061004a5760003560e01c8063409de9161461004f5780635e7339ce146100665780637ee8b2f8146100915780639178a27c146100ce578063f3f43703146100ea575b600080fd5b34801561005b57600080fd5b50610064610127565b005b34801561007257600080fd5b5061007b610301565b6040516100889190610942565b60405180910390f35b34801561009d57600080fd5b506100b860048036038101906100b391906109a4565b61048f565b6040516100c591906109e0565b60405180910390f35b6100e860048036038101906100e39190610b30565b6104d8565b005b3480156100f657600080fd5b50610111600480360381019061010c91906109a4565b6106de565b60405161011e91906109e0565b60405180910390f35b61012f6106f6565b6000600260003373ffffffffffffffffffffffffffffffffffffffff1673ffffffffffffffffffffffffffffffffffffffff168152602001908152602001600020549050600081116101b6576040517f08c379a00000000000000000000000000000000000000000000000000000000081526004016101ad90610be9565b60405180910390fd5b6000600260003373ffffffffffffffffffffffffffffffffffffffff1673ffffffffffffffffffffffffffffffffffffffff1681526020019081526020016000208190555060003373ffffffffffffffffffffffffffffffffffffffff168260405161022190610c3a565b60006040518083038185875af1925050503d806000811461025e576040519150601f19603f3d011682016040523d82523d6000602084013e610263565b606091505b50509050806102a7576040517f08c379a000000000000000000000000000000000000000000000000000000000815260040161029e90610c9b565b60405180910390fd5b3373ffffffffffffffffffffffffffffffffffffffff167f01c80e8bde1b45341aef49392ba27ca1470fb5588e875b7f3ba119e65aae1cc0836040516102ed91906109e0565b60405180910390a250506102ff61073c565b565b6060600160003373ffffffffffffffffffffffffffffffffffffffff1673ffffffffffffffffffffffffffffffffffffffff168152602001908152602001600020805480602002602001604051908101604052809291908181526020016000905b8282101561048657838290600052602060002090600302016040518060600160405290816000820160009054906101000a900473ffffffffffffffffffffffffffffffffffffffff1673ffffffffffffffffffffffffffffffffffffffff1673ffffffffffffffffffffffffffffffffffffffff1681526020016001820180546103eb90610cea565b80601f016020809104026020016040519081016040528092919081815260200182805461041790610cea565b80156104645780601f1061043957610100808354040283529160200191610464565b820191906000526020600020905b81548152906001019060200180831161044757829003601f168201915b5050505050815260200160028201548152505081526020019060010190610362565b50505050905090565b6000600260008373ffffffffffffffffffffffffffffffffffffffff1673ffffffffffffffffffffffffffffffffffffffff168152602001908152602001600020549050919050565b6000341161051b576040517f08c379a000000000000000000000000000000000000000000000000000000000815260040161051290610d67565b60405180910390fd5b600160008373ffffffffffffffffffffffffffffffffffffffff1673ffffffffffffffffffffffffffffffffffffffff16815260200190815260200160002060405180606001604052803373ffffffffffffffffffffffffffffffffffffffff16815260200183815260200134815250908060018154018082558091505060019003906000526020600020906003020160009091909190915060008201518160000160006101000a81548173ffffffffffffffffffffffffffffffffffffffff021916908373ffffffffffffffffffffffffffffffffffffffff16021790555060208201518160010190816106109190610f33565b5060408201518160020155505034600260008473ffffffffffffffffffffffffffffffffffffffff1673ffffffffffffffffffffffffffffffffffffffff168152602001908152602001600020600082825461066c9190611034565b925050819055508173ffffffffffffffffffffffffffffffffffffffff163373ffffffffffffffffffffffffffffffffffffffff167f0e52c6a860302a6b913d1df2daeafd2f4e5502e3ba8d58e409a96d1f197d3f3783346040516106d29291906110a1565b60405180910390a35050565b60026020528060005260406000206000915090505481565b600260005403610732576040517f3ee5aeb500000000000000000000000000000000000000000000000000000000815260040160405180910390fd5b6002600081905550565b6001600081905550565b600081519050919050565b600082825260208201905092915050565b6000819050602082019050919050565b600073ffffffffffffffffffffffffffffffffffffffff82169050919050565b600061079d82610772565b9050919050565b6107ad81610792565b82525050565b600081519050919050565b600082825260208201905092915050565b60005b838110156107ed5780820151818401526020810190506107d2565b60008484015250505050565b6000601f19601f8301169050919050565b6000610815826107b3565b61081f81856107be565b935061082f8185602086016107cf565b610838816107f9565b840191505092915050565b6000819050919050565b61085681610843565b82525050565b600060608301600083015161087460008601826107a4565b506020830151848203602086015261088c828261080a565b91505060408301516108a1604086018261084d565b508091505092915050565b60006108b8838361085c565b905092915050565b6000602082019050919050565b60006108d882610746565b6108e28185610751565b9350836020820285016108f485610762565b8060005b85811015610930578484038952815161091185826108ac565b945061091c836108c0565b925060208a019950506001810190506108f8565b50829750879550505050505092915050565b6000602082019050818103600083015261095c81846108cd565b905092915050565b6000604051905090565b600080fd5b600080fd5b61098181610792565b811461098c57600080fd5b50565b60008135905061099e81610978565b92915050565b6000602082840312156109ba576109b961096e565b5b60006109c88482850161098f565b91505092915050565b6109da81610843565b82525050565b60006020820190506109f560008301846109d1565b92915050565b600080fd5b600080fd5b7f4e487b7100000000000000000000000000000000000000000000000000000000600052604160045260246000fd5b610a3d826107f9565b810181811067ffffffffffffffff82111715610a5c57610a5b610a05565b5b80604052505050565b6000610a6f610964565b9050610a7b8282610a34565b919050565b600067ffffffffffffffff821115610a9b57610a9a610a05565b5b610aa4826107f9565b9050602081019050919050565b82818337600083830152505050565b6000610ad3610ace84610a80565b610a65565b905082815260208101848484011115610aef57610aee610a00565b5b610afa848285610ab1565b509392505050565b600082601f830112610b1757610b166109fb565b5b8135610b27848260208601610ac0565b91505092915050565b60008060408385031215610b4757610b4661096e565b5b6000610b558582860161098f565b925050602083013567ffffffffffffffff811115610b7657610b75610973565b5b610b8285828601610b02565b9150509250929050565b600082825260208201905092915050565b7f4e6f20636f66666565206d6f6e657920746f2077697468647261770000000000600082015250565b6000610bd3601b83610b8c565b9150610bde82610b9d565b602082019050919050565b60006020820190508181036000830152610c0281610bc6565b9050919050565b600081905092915050565b50565b6000610c24600083610c09565b9150610c2f82610c14565b600082019050919050565b6000610c4582610c17565b9150819050919050565b7f5472616e73666572206661696c65640000000000000000000000000000000000600082015250565b6000610c85600f83610b8c565b9150610c9082610c4f565b602082019050919050565b60006020820190508181036000830152610cb481610c78565b9050919050565b7f4e487b7100000000000000000000000000000000000000000000000000000000600052602260045260246000fd5b60006002820490506001821680610d0257607f821691505b602082108103610d1557610d14610cbb565b5b50919050565b7f596f75206d7573742073656e6420736f6d652045746865720000000000000000600082015250565b6000610d51601883610b8c565b9150610d5c82610d1b565b602082019050919050565b60006020820190508181036000830152610d8081610d44565b9050919050565b60008190508160005260206000209050919050565b60006020601f8301049050919050565b600082821b905092915050565b600060088302610de97fffffffffffffffffffffffffffffffffffffffffffffffffffffffffffffffff82610dac565b610df38683610dac565b95508019841693508086168417925050509392505050565b6000819050919050565b6000610e30610e2b610e2684610843565b610e0b565b610843565b9050919050565b6000819050919050565b610e4a83610e15565b610e5e610e5682610e37565b848454610db9565b825550505050565b600090565b610e73610e66565b610e7e818484610e41565b505050565b5b81811015610ea257610e97600082610e6b565b600181019050610e84565b5050565b601f821115610ee757610eb881610d87565b610ec184610d9c565b81016020851015610ed0578190505b610ee4610edc85610d9c565b830182610e83565b50505b505050565b600082821c905092915050565b6000610f0a60001984600802610eec565b1980831691505092915050565b6000610f238383610ef9565b9150826002028217905092915050565b610f3c826107b3565b67ffffffffffffffff811115610f5557610f54610a05565b5b610f5f8254610cea565b610f6a828285610ea6565b600060209050601f831160018114610f9d5760008415610f8b578287015190505b610f958582610f17565b865550610ffd565b601f198416610fab86610d87565b60005b82811015610fd357848901518255600182019150602085019450602081019050610fae565b86831015610ff05784890151610fec601f891682610ef9565b8355505b6001600288020188555050505b505050505050565b7f4e487b7100000000000000000000000000000000000000000000000000000000600052601160045260246000fd5b600061103f82610843565b915061104a83610843565b925082820190508082111561106257611061611005565b5b92915050565b6000611073826107b3565b61107d8185610b8c565b935061108d8185602086016107cf565b611096816107f9565b840191505092915050565b600060408201905081810360008301526110bb8185611068565b90506110ca60208301846109d1565b939250505056fea2646970667358221220555ab911da40ca336f05175abf18be1802312b3562d3e9c600058fd9619c459964736f6c63430008180033",
  "linkReferences": {},
  "deployedLinkReferences": {}
}